{
  "contractName": "BurnToken",
  "abi": [
    {
      "inputs": [],
      "stateMutability": "payable",
      "type": "constructor"
    },
    {
      "anonymous": false,
      "inputs": [
        {
          "indexed": true,
          "internalType": "address",
          "name": "_form",
          "type": "address"
        },
        {
          "indexed": true,
          "internalType": "address",
          "name": "_to",
          "type": "address"
        },
        {
          "indexed": false,
          "internalType": "uint256",
          "name": "_amount",
          "type": "uint256"
        }
      ],
      "name": "TransferEvent",
      "type": "event"
    },
    {
      "anonymous": false,
      "inputs": [
        {
          "indexed": true,
          "internalType": "address",
          "name": "_changer",
          "type": "address"
        }
      ],
      "name": "TurnOffPaused",
      "type": "event"
    },
    {
      "anonymous": false,
      "inputs": [
        {
          "indexed": true,
          "internalType": "address",
          "name": "_changer",
          "type": "address"
        }
      ],
      "name": "TurnOnPaused",
      "type": "event"
    },
    {
      "inputs": [],
      "name": "Admin",
      "outputs": [
        {
          "internalType": "address",
          "name": "",
          "type": "address"
        }
      ],
      "stateMutability": "view",
      "type": "function"
    },
    {
      "inputs": [],
      "name": "User",
      "outputs": [
        {
          "internalType": "address payable",
          "name": "",
          "type": "address"
        }
      ],
      "stateMutability": "view",
      "type": "function"
    },
    {
      "inputs": [],
      "name": "burnswap",
      "outputs": [
        {
          "internalType": "contract BurnSwap",
          "name": "",
          "type": "address"
        }
      ],
      "stateMutability": "view",
      "type": "function"
    },
    {
      "inputs": [],
      "name": "factory",
      "outputs": [
        {
          "internalType": "contract BurnTokenFactory",
          "name": "",
          "type": "address"
        }
      ],
      "stateMutability": "view",
      "type": "function"
    },
    {
      "inputs": [],
      "name": "paused",
      "outputs": [
        {
          "internalType": "bool",
          "name": "",
          "type": "bool"
        }
      ],
      "stateMutability": "view",
      "type": "function"
    },
    {
      "inputs": [],
      "name": "Balance",
      "outputs": [
        {
          "internalType": "uint256",
          "name": "",
          "type": "uint256"
        }
      ],
      "stateMutability": "view",
      "type": "function"
    },
    {
      "inputs": [],
      "name": "total",
      "outputs": [
        {
          "internalType": "uint256",
          "name": "",
          "type": "uint256"
        }
      ],
      "stateMutability": "view",
      "type": "function"
    },
    {
      "inputs": [
        {
          "internalType": "address payable",
          "name": "_to",
          "type": "address"
        },
        {
          "internalType": "uint256",
          "name": "_amount",
          "type": "uint256"
        }
      ],
      "name": "Sending",
      "outputs": [
        {
          "internalType": "bool",
          "name": "",
          "type": "bool"
        }
      ],
      "stateMutability": "nonpayable",
      "type": "function"
    },
    {
      "inputs": [],
      "name": "pauseStatus",
      "outputs": [
        {
          "internalType": "bool",
          "name": "",
          "type": "bool"
        }
      ],
      "stateMutability": "view",
      "type": "function"
    },
    {
      "inputs": [],
      "name": "TurningOnPaused",
      "outputs": [
        {
          "internalType": "bool",
          "name": "",
          "type": "bool"
        }
      ],
      "stateMutability": "nonpayable",
      "type": "function"
    },
    {
      "inputs": [],
      "name": "TurningOffPaused",
      "outputs": [
        {
          "internalType": "bool",
          "name": "",
          "type": "bool"
        }
      ],
      "stateMutability": "nonpayable",
      "type": "function"
    },
    {
      "inputs": [
        {
          "internalType": "address",
          "name": "_new",
          "type": "address"
        }
      ],
      "name": "addAdmin",
      "outputs": [
        {
          "internalType": "bool",
          "name": "",
          "type": "bool"
        }
      ],
      "stateMutability": "nonpayable",
      "type": "function"
    },
    {
      "inputs": [
        {
          "internalType": "address",
          "name": "_admin",
          "type": "address"
        }
      ],
      "name": "isAdmin",
      "outputs": [
        {
          "internalType": "bool",
          "name": "",
          "type": "bool"
        }
      ],
      "stateMutability": "view",
      "type": "function"
    },
    {
      "inputs": [
        {
          "internalType": "address",
          "name": "_user",
          "type": "address"
        }
      ],
      "name": "addUser",
      "outputs": [
        {
          "internalType": "bool",
          "name": "",
          "type": "bool"
        }
      ],
      "stateMutability": "nonpayable",
      "type": "function"
    },
    {
      "inputs": [
        {
          "internalType": "address",
          "name": "_wallet",
          "type": "address"
        }
      ],
      "name": "isUser",
      "outputs": [
        {
          "internalType": "bool",
          "name": "",
          "type": "bool"
        }
      ],
      "stateMutability": "view",
      "type": "function"
    }
  ],
  "bytecode": "0x60806040526012600160146101000a81548160ff021916908360ff160217905550600160149054906101000a900460ff16600a6200003e9190620002f1565b60b46200004c919062000342565b60025532600160006101000a81548173ffffffffffffffffffffffffffffffffffffffff021916908373ffffffffffffffffffffffffffffffffffffffff1602179055506000600360006101000a81548160ff021916908315150217905550600360019054906101000a900473ffffffffffffffffffffffffffffffffffffffff1673ffffffffffffffffffffffffffffffffffffffff1663fb1669ca6002546040518263ffffffff1660e01b81526004016200010a9190620003b4565b6020604051808303816000875af11580156200012a573d6000803e3d6000fd5b505050506040513d601f19601f8201168201806040525081019062000150919062000413565b5062000445565b7f4e487b7100000000000000000000000000000000000000000000000000000000600052601160045260246000fd5b60008160011c9050919050565b6000808291508390505b6001851115620001e557808604811115620001bd57620001bc62000157565b5b6001851615620001cd5780820291505b8081029050620001dd8562000186565b94506200019d565b94509492505050565b600082620002005760019050620002d3565b81620002105760009050620002d3565b816001811462000229576002811462000234576200026a565b6001915050620002d3565b60ff84111562000249576200024862000157565b5b8360020a91508482111562000263576200026262000157565b5b50620002d3565b5060208310610133831016604e8410600b8410161715620002a45782820a9050838111156200029e576200029d62000157565b5b620002d3565b620002b3848484600162000193565b92509050818404811115620002cd57620002cc62000157565b5b81810290505b9392505050565b6000819050919050565b600060ff82169050919050565b6000620002fe82620002da565b91506200030b83620002e4565b92506200033a7fffffffffffffffffffffffffffffffffffffffffffffffffffffffffffffffff8484620001ee565b905092915050565b60006200034f82620002da565b91506200035c83620002da565b9250817fffffffffffffffffffffffffffffffffffffffffffffffffffffffffffffffff048311821515161562000398576200039762000157565b5b828202905092915050565b620003ae81620002da565b82525050565b6000602082019050620003cb6000830184620003a3565b92915050565b600080fd5b60008115159050919050565b620003ed81620003d6565b8114620003f957600080fd5b50565b6000815190506200040d81620003e2565b92915050565b6000602082840312156200042c576200042b620003d1565b5b60006200043c84828501620003fc565b91505092915050565b6112e780620004556000396000f3fe608060405234801561001057600080fd5b50600436106100f55760003560e01c80635c975abb11610097578063c19522af11610066578063c19522af1461029e578063c45a0155146102bc578063dcd4a668146102da578063ff1b636d146102f8576100f5565b80635c975abb1461020257806370480275146102205780639f15087814610250578063a6c0c34c1461026e576100f5565b80632ddbd13a116100d35780632ddbd13a146101665780634209fff114610184578063421b2d8b146101b4578063466916ca146101e4576100f5565b80630ef67887146100fa5780631429e26c1461011857806324d7806c14610136575b600080fd5b610102610316565b60405161010f9190610ed6565b60405180910390f35b61012061035d565b60405161012d9190610f32565b60405180910390f35b610150600480360381019061014b9190610f90565b610381565b60405161015d9190610fd8565b60405180910390f35b61016e610436565b60405161017b9190610ed6565b60405180910390f35b61019e60048036038101906101999190610f90565b610440565b6040516101ab9190610fd8565b60405180910390f35b6101ce60048036038101906101c99190610f90565b6104f5565b6040516101db9190610fd8565b60405180910390f35b6101ec61074d565b6040516101f99190610fd8565b60405180910390f35b61020a6107c3565b6040516102179190610fd8565b60405180910390f35b61023a60048036038101906102359190610f90565b6107d6565b6040516102479190610fd8565b60405180910390f35b6102586109f5565b6040516102659190611052565b60405180910390f35b610288600480360381019061028391906110c5565b610a1b565b6040516102959190610fd8565b60405180910390f35b6102a6610c91565b6040516102b39190610fd8565b60405180910390f35b6102c4610d81565b6040516102d19190611138565b60405180910390f35b6102e2610da7565b6040516102ef9190610fd8565b60405180910390f35b610300610e97565b60405161030d9190611162565b60405180910390f35b6000600760003373ffffffffffffffffffffffffffffffffffffffff1673ffffffffffffffffffffffffffffffffffffffff16815260200190815260200160002054905090565b60008054906101000a900473ffffffffffffffffffffffffffffffffffffffff1681565b60003360011515600660008373ffffffffffffffffffffffffffffffffffffffff1673ffffffffffffffffffffffffffffffffffffffff16815260200190815260200160002060009054906101000a900460ff161515146103e157600080fd5b600660008473ffffffffffffffffffffffffffffffffffffffff1673ffffffffffffffffffffffffffffffffffffffff16815260200190815260200160002060009054906101000a900460ff16915050919050565b6000600254905090565b60003360011515600660008373ffffffffffffffffffffffffffffffffffffffff1673ffffffffffffffffffffffffffffffffffffffff16815260200190815260200160002060009054906101000a900460ff161515146104a057600080fd5b600560008473ffffffffffffffffffffffffffffffffffffffff1673ffffffffffffffffffffffffffffffffffffffff16815260200190815260200160002060009054906101000a900460ff16915050919050565b60008073ffffffffffffffffffffffffffffffffffffffff168273ffffffffffffffffffffffffffffffffffffffff1614158015610583575060001515600560008473ffffffffffffffffffffffffffffffffffffffff1673ffffffffffffffffffffffffffffffffffffffff16815260200190815260200160002060009054906101000a900460ff161515145b61058c57600080fd5b6000600460009054906101000a900473ffffffffffffffffffffffffffffffffffffffff1673ffffffffffffffffffffffffffffffffffffffff16632cfbc11a6040518163ffffffff1660e01b81526004016020604051808303816000875af11580156105fd573d6000803e3d6000fd5b505050506040513d601f19601f820116820180604052508101906106219190611192565b90506001600560008573ffffffffffffffffffffffffffffffffffffffff1673ffffffffffffffffffffffffffffffffffffffff16815260200190815260200160002060006101000a81548160ff02191690831515021790555060011515600560008373ffffffffffffffffffffffffffffffffffffffff1673ffffffffffffffffffffffffffffffffffffffff16815260200190815260200160002060009054906101000a900460ff16151514156106de576001915050610748565b6000600560008373ffffffffffffffffffffffffffffffffffffffff1673ffffffffffffffffffffffffffffffffffffffff16815260200190815260200160002060006101000a81548160ff0219169083151502179055610742576107416111bf565b5b60009150505b919050565b60003360011515600660008373ffffffffffffffffffffffffffffffffffffffff1673ffffffffffffffffffffffffffffffffffffffff16815260200190815260200160002060009054906101000a900460ff161515146107ad57600080fd5b600360009054906101000a900460ff1691505090565b600360009054906101000a900460ff1681565b60003360011515600660008373ffffffffffffffffffffffffffffffffffffffff1673ffffffffffffffffffffffffffffffffffffffff16815260200190815260200160002060009054906101000a900460ff1615151461083657600080fd5b600073ffffffffffffffffffffffffffffffffffffffff168373ffffffffffffffffffffffffffffffffffffffff16141580156108c3575060001515600660008573ffffffffffffffffffffffffffffffffffffffff1673ffffffffffffffffffffffffffffffffffffffff16815260200190815260200160002060009054906101000a900460ff161515145b6108cc57600080fd5b6001600660008573ffffffffffffffffffffffffffffffffffffffff1673ffffffffffffffffffffffffffffffffffffffff16815260200190815260200160002060006101000a81548160ff02191690831515021790555060011515600660008573ffffffffffffffffffffffffffffffffffffffff1673ffffffffffffffffffffffffffffffffffffffff16815260200190815260200160002060009054906101000a900460ff161515141561098657600191506109ef565b6000600660008573ffffffffffffffffffffffffffffffffffffffff1673ffffffffffffffffffffffffffffffffffffffff16815260200190815260200160002060006101000a81548160ff02191690831515021790556109ea576109e96111bf565b5b600091505b50919050565b600360019054906101000a900473ffffffffffffffffffffffffffffffffffffffff1681565b60003360011515600560008373ffffffffffffffffffffffffffffffffffffffff1673ffffffffffffffffffffffffffffffffffffffff16815260200190815260200160002060009054906101000a900460ff16151514610a7b57600080fd5b6000600760003373ffffffffffffffffffffffffffffffffffffffff1673ffffffffffffffffffffffffffffffffffffffff168152602001908152602001600020549050838110158015610afc5750600073ffffffffffffffffffffffffffffffffffffffff168573ffffffffffffffffffffffffffffffffffffffff1614155b610b0557600080fd5b60001515600360009054906101000a900460ff16151514610b2557600080fd5b6000808673ffffffffffffffffffffffffffffffffffffffff1686604051610b4c9061121f565b60006040518083038185875af1925050503d8060008114610b89576040519150601f19603f3d011682016040523d82523d6000602084013e610b8e565b606091505b509150915081610bd3576040517f08c379a0000000000000000000000000000000000000000000000000000000008152600401610bca90611291565b60405180910390fd5b82600760003373ffffffffffffffffffffffffffffffffffffffff1673ffffffffffffffffffffffffffffffffffffffff1681526020019081526020016000205410610c1e57600080fd5b8673ffffffffffffffffffffffffffffffffffffffff163373ffffffffffffffffffffffffffffffffffffffff167feaf1c4b3ce0f4f62a2bae7eb3e68225c75f7e6ff4422073b7437b9a78d25f17088604051610c7b9190610ed6565b60405180910390a3600194505050505092915050565b60003360011515600660008373ffffffffffffffffffffffffffffffffffffffff1673ffffffffffffffffffffffffffffffffffffffff16815260200190815260200160002060009054906101000a900460ff16151514610cf157600080fd5b60001515600360009054906101000a900460ff16151514610d1157600080fd5b6001600360006101000a81548160ff02191690831515021790555060011515600360009054906101000a900460ff1615151415610d515760019150610d7d565b6000600360006101000a81548160ff0219169083151502179055610d7857610d776111bf565b5b600091505b5090565b600460009054906101000a900473ffffffffffffffffffffffffffffffffffffffff1681565b60003360011515600660008373ffffffffffffffffffffffffffffffffffffffff1673ffffffffffffffffffffffffffffffffffffffff16815260200190815260200160002060009054906101000a900460ff16151514610e0757600080fd5b60011515600360009054906101000a900460ff16151514610e2757600080fd5b6000600360006101000a81548160ff02191690831515021790555060001515600360009054906101000a900460ff1615151415610e675760019150610e93565b6001600360006101000a81548160ff0219169083151502179055610e8e57610e8d6111bf565b5b600091505b5090565b600160009054906101000a900473ffffffffffffffffffffffffffffffffffffffff1681565b6000819050919050565b610ed081610ebd565b82525050565b6000602082019050610eeb6000830184610ec7565b92915050565b600073ffffffffffffffffffffffffffffffffffffffff82169050919050565b6000610f1c82610ef1565b9050919050565b610f2c81610f11565b82525050565b6000602082019050610f476000830184610f23565b92915050565b600080fd5b6000610f5d82610ef1565b9050919050565b610f6d81610f52565b8114610f7857600080fd5b50565b600081359050610f8a81610f64565b92915050565b600060208284031215610fa657610fa5610f4d565b5b6000610fb484828501610f7b565b91505092915050565b60008115159050919050565b610fd281610fbd565b82525050565b6000602082019050610fed6000830184610fc9565b92915050565b6000819050919050565b600061101861101361100e84610ef1565b610ff3565b610ef1565b9050919050565b600061102a82610ffd565b9050919050565b600061103c8261101f565b9050919050565b61104c81611031565b82525050565b60006020820190506110676000830184611043565b92915050565b61107681610f11565b811461108157600080fd5b50565b6000813590506110938161106d565b92915050565b6110a281610ebd565b81146110ad57600080fd5b50565b6000813590506110bf81611099565b92915050565b600080604083850312156110dc576110db610f4d565b5b60006110ea85828601611084565b92505060206110fb858286016110b0565b9150509250929050565b600061111082610ffd565b9050919050565b600061112282611105565b9050919050565b61113281611117565b82525050565b600060208201905061114d6000830184611129565b92915050565b61115c81610f52565b82525050565b60006020820190506111776000830184611153565b92915050565b60008151905061118c81610f64565b92915050565b6000602082840312156111a8576111a7610f4d565b5b60006111b68482850161117d565b91505092915050565b7f4e487b7100000000000000000000000000000000000000000000000000000000600052600160045260246000fd5b600081905092915050565b50565b60006112096000836111ee565b9150611214826111f9565b600082019050919050565b600061122a826111fc565b9150819050919050565b600082825260208201905092915050565b7f546865207472616e73616374696f6e20776173206661696c6564000000000000600082015250565b600061127b601a83611234565b915061128682611245565b602082019050919050565b600060208201905081810360008301526112aa8161126e565b905091905056fea264697066735822122079dc0ef8c9971b6bfbab8b192a753267a7016a71b44af723f736076bf739469964736f6c634300080a0033",
  "immutableReferences": {},
  "source": "pragma solidity >= 0.5.0 < 0.9.0;\n\nimport \"./BurnSwap.sol\";\nimport \"./BurnTokenFactory.sol\";\n\n\ncontract BurnToken {\n    address payable public User;\n    address public Admin;\n\n    uint8 decimal = 18;\n    uint256 totalSupply = 180 * (10 ** (decimal));\n\n    bool public paused;\n\n    BurnSwap public burnswap;\n\n    BurnTokenFactory public factory;\n\n\n\n    constructor() payable {\n        Admin = tx.origin;\n        paused = false;\n\n        // Give all of tokens to BurnSwap:\n        burnswap.setBalance(totalSupply);\n    }\n\n\n\n    mapping(address => bool) UserApproved;\n    mapping(address => bool) Admins;\n    mapping(address => uint256) balance;\n\n\n\n    event TransferEvent(address indexed _form, address indexed _to, uint256 _amount);\n    event TurnOnPaused(address indexed _changer);\n    event TurnOffPaused(address indexed _changer);\n\n\n\n    modifier UserExistence(address _user) {\n        require(UserApproved[_user] == true);\n            _;\n    }\n\n    modifier OnlyAdmin(address _admin) {\n        require(Admins[_admin] == true);\n            _;\n    }\n\n\n\n\n    // functions:\n    function Balance() public view returns(uint256) {\n        return balance[msg.sender];\n    }\n\n    function total() public view returns(uint256) {\n        return totalSupply;\n    }\n\n    function Sending(address payable _to, uint256 _amount) public UserExistence(msg.sender) returns(bool) {\n        uint256 userBalance = balance[msg.sender];\n\n        require(userBalance >= _amount && _to != address(0x0));\n        require(paused == false);\n\n        (bool sent, bytes memory data) = _to.call{value: _amount}(\"\");\n\n        require(sent, \"The transaction was failed\");\n        require(balance[msg.sender] < userBalance);\n\n        emit TransferEvent(msg.sender, _to, _amount);\n        return true;\n    }\n    \n\n    function pauseStatus() public view OnlyAdmin(msg.sender) returns(bool) {\n        return paused;\n    }\n\n\n    function TurningOnPaused() public OnlyAdmin(msg.sender) returns(bool) {\n        require(paused == false);\n        paused = true;\n\n        if (paused == true) {\n            return true;\n        } else {\n            assert(paused = false);\n            return false;\n        }\n    }\n\n\n    function TurningOffPaused() public OnlyAdmin(msg.sender) returns(bool) {\n        require(paused == true);\n        paused = false;\n\n        if (paused == false) {\n            return true;\n        } else {\n            assert(paused = true);\n            return false;\n        }\n    }\n\n\n    function addAdmin(address _new) external OnlyAdmin(msg.sender) returns(bool) {\n        require(_new != address(0x0) && Admins[_new] == false);\n        Admins[_new] = true;\n\n        if (Admins[_new] == true) {\n            return true;\n        } else {\n            assert(Admins[_new] = false);\n            return false;\n        }\n    }\n\n    function isAdmin(address _admin) public view OnlyAdmin(msg.sender) returns(bool) {\n        return Admins[_admin];\n    }\n\n\n\n    function addUser(address _user) public returns(bool) {\n        require(_user != address(0x0) && UserApproved[_user] == false);\n\n        address wallet = factory.CreateBurnWallet();\n        UserApproved[_user] = true;\n\n        if (UserApproved[wallet] == true) {\n            return true;\n        } else {\n            assert(UserApproved[wallet] = false);\n            return false;\n        }\n    }\n\n    function isUser(address _wallet) public view OnlyAdmin(msg.sender) returns(bool) {\n        return UserApproved[_wallet];\n    }\n\n}",
  "sourcePath": "/home/kali/Desktop/BurnSwapProject/BurnSwap/contracts/BurnToken.sol",
  "compiler": {
    "name": "solc",
    "version": "0.8.10+commit.fc410830.Emscripten.clang"
  },
  "schemaVersion": "3.4.3",
  "updatedAt": "2021-11-12T11:56:01.183Z",
  "devdoc": {
    "kind": "dev",
    "methods": {},
    "version": 1
  },
  "userdoc": {
    "kind": "user",
    "methods": {},
    "version": 1
  }
}