{
  "contractName": "BurnSwap",
  "abi": [
    {
      "inputs": [],
      "stateMutability": "payable",
      "type": "constructor"
    },
    {
      "anonymous": false,
      "inputs": [
        {
          "indexed": false,
          "internalType": "uint256",
          "name": "_amoumt",
          "type": "uint256"
        }
      ],
      "name": "Burn",
      "type": "event"
    },
    {
      "anonymous": false,
      "inputs": [
        {
          "indexed": false,
          "internalType": "address",
          "name": "_swap",
          "type": "address"
        },
        {
          "indexed": false,
          "internalType": "address",
          "name": "_spender",
          "type": "address"
        },
        {
          "indexed": false,
          "internalType": "uint256",
          "name": "_amount",
          "type": "uint256"
        }
      ],
      "name": "BuyBurn",
      "type": "event"
    },
    {
      "anonymous": false,
      "inputs": [
        {
          "indexed": false,
          "internalType": "uint256",
          "name": "_amount",
          "type": "uint256"
        }
      ],
      "name": "receiveEther",
      "type": "event"
    },
    {
      "stateMutability": "payable",
      "type": "fallback"
    },
    {
      "inputs": [],
      "name": "SwapBalance",
      "outputs": [
        {
          "internalType": "uint256",
          "name": "",
          "type": "uint256"
        }
      ],
      "stateMutability": "view",
      "type": "function"
    },
    {
      "inputs": [],
      "name": "User",
      "outputs": [
        {
          "internalType": "address payable",
          "name": "",
          "type": "address"
        }
      ],
      "stateMutability": "view",
      "type": "function"
    },
    {
      "inputs": [],
      "name": "burning",
      "outputs": [
        {
          "internalType": "address payable",
          "name": "",
          "type": "address"
        }
      ],
      "stateMutability": "view",
      "type": "function"
    },
    {
      "inputs": [],
      "name": "factory",
      "outputs": [
        {
          "internalType": "contract BurnTokenFactory",
          "name": "",
          "type": "address"
        }
      ],
      "stateMutability": "view",
      "type": "function"
    },
    {
      "inputs": [],
      "name": "swapAddress",
      "outputs": [
        {
          "internalType": "address",
          "name": "",
          "type": "address"
        }
      ],
      "stateMutability": "view",
      "type": "function"
    },
    {
      "inputs": [],
      "name": "token",
      "outputs": [
        {
          "internalType": "contract BurnToken",
          "name": "",
          "type": "address"
        }
      ],
      "stateMutability": "view",
      "type": "function"
    },
    {
      "stateMutability": "payable",
      "type": "receive"
    },
    {
      "inputs": [
        {
          "internalType": "uint256",
          "name": "_amount",
          "type": "uint256"
        }
      ],
      "name": "setBalance",
      "outputs": [
        {
          "internalType": "bool",
          "name": "",
          "type": "bool"
        }
      ],
      "stateMutability": "nonpayable",
      "type": "function"
    },
    {
      "inputs": [
        {
          "internalType": "address payable",
          "name": "_to",
          "type": "address"
        },
        {
          "internalType": "uint256",
          "name": "_amount",
          "type": "uint256"
        }
      ],
      "name": "Buy",
      "outputs": [
        {
          "internalType": "bool",
          "name": "",
          "type": "bool"
        }
      ],
      "stateMutability": "nonpayable",
      "type": "function"
    },
    {
      "inputs": [
        {
          "internalType": "address",
          "name": "_from",
          "type": "address"
        },
        {
          "internalType": "uint256",
          "name": "_amount",
          "type": "uint256"
        }
      ],
      "name": "Swap",
      "outputs": [
        {
          "internalType": "bool",
          "name": "",
          "type": "bool"
        }
      ],
      "stateMutability": "nonpayable",
      "type": "function"
    }
  ],
  "bytecode": "0x608060405261dead6000806101000a81548173ffffffffffffffffffffffffffffffffffffffff021916908373ffffffffffffffffffffffffffffffffffffffff160217905550735f4ec3df9cbd43714fe2740f5e3616155c5b8419600660006101000a81548173ffffffffffffffffffffffffffffffffffffffff021916908373ffffffffffffffffffffffffffffffffffffffff16021790555030600260006101000a81548173ffffffffffffffffffffffffffffffffffffffff021916908373ffffffffffffffffffffffffffffffffffffffff160217905550610f14806100eb6000396000f3fe60806040526004361061008a5760003560e01c806380f6d7821161005957806380f6d782146102f6578063c45a015514610321578063e3d4187f1461034c578063fb1669ca14610389578063fc0c546a146103c6576101f6565b806301afba2c146102385780631429e26c146102635780634c12b33f1461028e578063562c2195146102b9576101f6565b366101f6576001600760003373ffffffffffffffffffffffffffffffffffffffff1673ffffffffffffffffffffffffffffffffffffffff16815260200190815260200160002060006101000a81548160ff02191690831515021790555034600860003373ffffffffffffffffffffffffffffffffffffffff1673ffffffffffffffffffffffffffffffffffffffff168152602001908152602001600020819055507f1efa4ec0ced6992851bbff672efc72f5c1fbfb09b4e783c9dc67a410cec3ab5c3460405161015a9190610ad3565b60405180910390a160008060009054906101000a900473ffffffffffffffffffffffffffffffffffffffff1673ffffffffffffffffffffffffffffffffffffffff166108fc349081150290604051600060405180830381858888f1935050505090507fb90306ad06b2a6ff86ddc9327db583062895ef6540e62dc50add009db5b356eb346040516101eb9190610ad3565b60405180910390a150005b600860003373ffffffffffffffffffffffffffffffffffffffff1673ffffffffffffffffffffffffffffffffffffffff16815260200190815260200160002050005b34801561024457600080fd5b5061024d6103f1565b60405161025a9190610ad3565b60405180910390f35b34801561026f57600080fd5b506102786103f7565b6040516102859190610b2f565b60405180910390f35b34801561029a57600080fd5b506102a361041d565b6040516102b09190610b2f565b60405180910390f35b3480156102c557600080fd5b506102e060048036038101906102db9190610bb9565b610441565b6040516102ed9190610c14565b60405180910390f35b34801561030257600080fd5b5061030b6106d2565b6040516103189190610c3e565b60405180910390f35b34801561032d57600080fd5b506103366106f8565b6040516103439190610cb8565b60405180910390f35b34801561035857600080fd5b50610373600480360381019061036e9190610cff565b61071e565b6040516103809190610c14565b60405180910390f35b34801561039557600080fd5b506103b060048036038101906103ab9190610d3f565b610a2a565b6040516103bd9190610c14565b60405180910390f35b3480156103d257600080fd5b506103db610a94565b6040516103e89190610d8d565b60405180910390f35b60035481565b600160009054906101000a900473ffffffffffffffffffffffffffffffffffffffff1681565b60008054906101000a900473ffffffffffffffffffffffffffffffffffffffff1681565b6000338073ffffffffffffffffffffffffffffffffffffffff16600260009054906101000a900473ffffffffffffffffffffffffffffffffffffffff1673ffffffffffffffffffffffffffffffffffffffff161461049e57600080fd5b6001151560076000600160009054906101000a900473ffffffffffffffffffffffffffffffffffffffff1673ffffffffffffffffffffffffffffffffffffffff1673ffffffffffffffffffffffffffffffffffffffff16815260200190815260200160002060009054906101000a900460ff1615151480156105b4575060001515600460009054906101000a900473ffffffffffffffffffffffffffffffffffffffff1673ffffffffffffffffffffffffffffffffffffffff1663466916ca6040518163ffffffff1660e01b8152600401602060405180830381865afa15801561058c573d6000803e3d6000fd5b505050506040513d601f19601f820116820180604052508101906105b09190610dd4565b1515145b6105f3576040517f08c379a00000000000000000000000000000000000000000000000000000000081526004016105ea90610e5e565b60405180910390fd5b600060086000600160009054906101000a900473ffffffffffffffffffffffffffffffffffffffff1673ffffffffffffffffffffffffffffffffffffffff1673ffffffffffffffffffffffffffffffffffffffff1681526020019081526020016000205490506000600160009054906101000a900473ffffffffffffffffffffffffffffffffffffffff1673ffffffffffffffffffffffffffffffffffffffff166108fc839081150290604051600060405180830381858888f19350505050905060011515811515146106c557600080fd5b6001935050505092915050565b600260009054906101000a900473ffffffffffffffffffffffffffffffffffffffff1681565b600560009054906101000a900473ffffffffffffffffffffffffffffffffffffffff1681565b60003360011515600460009054906101000a900473ffffffffffffffffffffffffffffffffffffffff1673ffffffffffffffffffffffffffffffffffffffff16634209fff1836040518263ffffffff1660e01b81526004016107809190610c3e565b602060405180830381865afa15801561079d573d6000803e3d6000fd5b505050506040513d601f19601f820116820180604052508101906107c19190610dd4565b1515146107cd57600080fd5b600073ffffffffffffffffffffffffffffffffffffffff168473ffffffffffffffffffffffffffffffffffffffff16141580156108215750823373ffffffffffffffffffffffffffffffffffffffff163110155b61082a57600080fd5b60001515600460009054906101000a900473ffffffffffffffffffffffffffffffffffffffff1673ffffffffffffffffffffffffffffffffffffffff1663466916ca6040518163ffffffff1660e01b8152600401602060405180830381865afa15801561089b573d6000803e3d6000fd5b505050506040513d601f19601f820116820180604052508101906108bf9190610dd4565b1515146108cb57600080fd5b6000600460009054906101000a900473ffffffffffffffffffffffffffffffffffffffff1673ffffffffffffffffffffffffffffffffffffffff1663a6c0c34c86866040518363ffffffff1660e01b815260040161092a929190610e7e565b6020604051808303816000875af1158015610949573d6000803e3d6000fd5b505050506040513d601f19601f8201168201806040525081019061096d9190610dd4565b9050600115158115151461098057600080fd5b33600160006101000a81548173ffffffffffffffffffffffffffffffffffffffff021916908373ffffffffffffffffffffffffffffffffffffffff1602179055507f13c5703cae56388cc6868c95977daba615a41cd312a0dfadf08e3ebe3ef9c480600260009054906101000a900473ffffffffffffffffffffffffffffffffffffffff163386604051610a1693929190610ea7565b60405180910390a160019250505092915050565b6000338073ffffffffffffffffffffffffffffffffffffffff16600260009054906101000a900473ffffffffffffffffffffffffffffffffffffffff1673ffffffffffffffffffffffffffffffffffffffff1614610a8757600080fd5b8260038190555050919050565b600460009054906101000a900473ffffffffffffffffffffffffffffffffffffffff1681565b6000819050919050565b610acd81610aba565b82525050565b6000602082019050610ae86000830184610ac4565b92915050565b600073ffffffffffffffffffffffffffffffffffffffff82169050919050565b6000610b1982610aee565b9050919050565b610b2981610b0e565b82525050565b6000602082019050610b446000830184610b20565b92915050565b600080fd5b6000610b5a82610aee565b9050919050565b610b6a81610b4f565b8114610b7557600080fd5b50565b600081359050610b8781610b61565b92915050565b610b9681610aba565b8114610ba157600080fd5b50565b600081359050610bb381610b8d565b92915050565b60008060408385031215610bd057610bcf610b4a565b5b6000610bde85828601610b78565b9250506020610bef85828601610ba4565b9150509250929050565b60008115159050919050565b610c0e81610bf9565b82525050565b6000602082019050610c296000830184610c05565b92915050565b610c3881610b4f565b82525050565b6000602082019050610c536000830184610c2f565b92915050565b6000819050919050565b6000610c7e610c79610c7484610aee565b610c59565b610aee565b9050919050565b6000610c9082610c63565b9050919050565b6000610ca282610c85565b9050919050565b610cb281610c97565b82525050565b6000602082019050610ccd6000830184610ca9565b92915050565b610cdc81610b0e565b8114610ce757600080fd5b50565b600081359050610cf981610cd3565b92915050565b60008060408385031215610d1657610d15610b4a565b5b6000610d2485828601610cea565b9250506020610d3585828601610ba4565b9150509250929050565b600060208284031215610d5557610d54610b4a565b5b6000610d6384828501610ba4565b91505092915050565b6000610d7782610c85565b9050919050565b610d8781610d6c565b82525050565b6000602082019050610da26000830184610d7e565b92915050565b610db181610bf9565b8114610dbc57600080fd5b50565b600081519050610dce81610da8565b92915050565b600060208284031215610dea57610de9610b4a565b5b6000610df884828501610dbf565b91505092915050565b600082825260208201905092915050565b7f55736572206469646e27742073656e6420457468657265756d20796574000000600082015250565b6000610e48601d83610e01565b9150610e5382610e12565b602082019050919050565b60006020820190508181036000830152610e7781610e3b565b9050919050565b6000604082019050610e936000830185610b20565b610ea06020830184610ac4565b9392505050565b6000606082019050610ebc6000830186610c2f565b610ec96020830185610c2f565b610ed66040830184610ac4565b94935050505056fea264697066735822122006bb2feaf03055df3d7727271186558490e3718f373697c537af81f8e158414064736f6c634300080a0033",
  "immutableReferences": {},
  "source": "pragma solidity >= 0.5.0 < 0.9.0;\n\n// For using from oracle \nimport \"./AggregatorV3Interface.sol\";\nimport \"./BurnToken.sol\";\nimport \"./BurnTokenFactory.sol\";\n\n\n\ncontract BurnSwap {\n\n    // For solving inteeger vulnerable\n    // using SafeMath for uint256;\n\n    // State variables:\n    address payable public burning;\n    // address payable public BurnAddress = payable(address(0x000000000000000000000000000000000000dEaD));\n    address payable public User;\n\n    //Set Swap contract address:\n    address public swapAddress;\n\n    // Swap balance; (determined via BurnToken's constructor)\n    uint256 public SwapBalance;\n\n    // Create an instance of BurnToken\n    BurnToken public token;\n\n    //Create an instance of BurnTokenFactory:\n    BurnTokenFactory public factory;\n\n    // Determine Ethereum Price:\n    AggregatorV3Interface internal EthereumPrice;\n\n\n\n\n\n\n\n    // Set mapping received:\n    // for swapping mission\n    mapping(address => bool) received;\n    mapping(address => uint256) receivedAmount;\n    \n    // a mpping for fallback() function:\n    mapping(address => uint256) wrongReceives;\n\n\n\n    constructor() payable {\n        burning = payable(0x000000000000000000000000000000000000dEaD);\n\n        EthereumPrice = AggregatorV3Interface(0x5f4eC3Df9cbd43714FE2740f5E3616155c5b8419);\n\n        swapAddress = address(this);    \n    }\n\n\n\n    //Set modifier: \n    modifier OnlyUser(address _user){\n        require(token.isUser(_user) == true);\n            _;\n    }\n\n    // modifier OnlyAdmins(address _admin) {\n    //     require(token.isAdmin(_admin) == true);\n    //         _;\n    // }\n    \n    modifier OnlySwap(address _swap) {\n        require(swapAddress == _swap);\n            _;\n    }\n\n\n\n    // Set events:\n    // User can buy BURN just via Ethereum (afterwards ETH will burn)\n    event BuyBurn(address _swap, address _spender, uint256 _amount);\n    // and then BURN token will send to wallet\n    event Burn(uint256 _amoumt);\n    // When contract receive Ether for swapping:\n    event receiveEther(uint256 _amount);\n\n\n\n\n\n   function setBalance(uint256 _amount) public OnlySwap(msg.sender) returns(bool) {\n        SwapBalance = _amount;\n    }\n\n\n    function Buy(address payable _to, uint256 _amount) public OnlyUser(msg.sender) returns(bool){\n        require(_to != address(0x0) && msg.sender.balance >= _amount);\n        require(token.pauseStatus() == false);\n\n        bool sent = token.Sending(_to, _amount);\n        require(sent == true);\n\n        // determine who sent ether to our contract\n        User = payable(msg.sender);\n        \n        emit BuyBurn(swapAddress, msg.sender, _amount);\n        return true;\n    }\n    \n        // bool success = BurnTokenFactory.createBurnWallet();\n        // require(success == true);\n\n    function Swap(address _from, uint256 _amount) public OnlySwap(msg.sender) returns(bool) {\n        require(received[User] == true && token.pauseStatus() == false,\"User didn't send Ethereum yet\");\n        uint256 amount = receivedAmount[User];\n        \n        bool sent = User.send(amount);\n        \n        require(sent == true);\n        return true;\n    }\n\n\n\n    receive() external payable {\n        received[msg.sender] = true;\n        receivedAmount[msg.sender] = msg.value;\n        \n        emit receiveEther(msg.value);\n\n        // Burning Ethereum received:\n        bool sent = burning.send(msg.value);\n        emit Burn(msg.value);\n    }\n\n    fallback() external payable {\n        receivedAmount[msg.sender];\n    }\n\n\n    //functions:\n    // function Swap(uint256 _amount) public payable OnlyUser(msg.sender) returns (bool,uint256) {  //bool : sent , uint256 : newBalance\n    //     // if SwapBalance has enough liquidity of BurnToken;\n    //     uint256 contractBalance = token.SwapBalance();\n    //     require(contractBalance >= _amount, \"This Swap doesn't has enough BURN token for do this swapping\");\n        \n    //     bool transfer = token.Sending(User, _amount);\n\n    //     emit BuyBurn(token.SwapAddress(), msg.sender, _amount);\n\n    //     uint256 UserNewBalance = msg.sender.balance;\n\n    //     return (transfer, UserNewBalance); \n    // }\n\n\n\n}",
  "sourcePath": "/home/kali/Desktop/BurnSwapProject/BurnSwap/contracts/BurnSwap.sol",
  "compiler": {
    "name": "solc",
    "version": "0.8.10+commit.fc410830.Emscripten.clang"
  },
  "schemaVersion": "3.4.3",
  "updatedAt": "2021-11-12T11:56:01.180Z",
  "devdoc": {
    "kind": "dev",
    "methods": {},
    "version": 1
  },
  "userdoc": {
    "kind": "user",
    "methods": {},
    "version": 1
  }
}